:020000040800F2
:10000000700800209D010008F71F00087B1E0008F3
:10001000F51F0008FD060008252C00080000000060
:10002000000000000000000000000000D1230008D4
:10003000FF0600080000000019210008D92400086C
:10004000B7010008B7010008B7010008B7010008B0
:10005000B701000851230008B7010008B7010008E4
:10006000B7010008B7010008B7010008B701000890
:10007000B7010008B7010008B7010008B701000880
:10008000B7010008B7010008B7010008B701000870
:10009000B7010008B7010008B7010008B701000860
:1000A000B7010008B7010008B7010008B701000850
:1000B000B9250008B7010008B7010008B70100081A
:1000C000B7010008B7010008B7010008B701000830
:1000D000B7010008012C00080D2C0008192C00089D
:1000E000B7010008B7010008B7010008B701000810
:1000F000B7010008B7010008B7010008B701000800
:10010000B7010008B7010008B7010008B7010008EF
:10011000B7010008B7010008B7010008B7010008DF
:10012000B7010008B7010008B7010008B7010008CF
:10013000B7010008B7010008B7010008B7010008BF
:10014000B7010008B7010008B7010008B7010008AF
:10015000B7010008B7010008B7010008B70100089F
:10016000B7010008B7010008B7010008B70100088F
:10017000B7010008B7010008B7010008000000003F
:10018000B7010008B7010008DFF80CD000F0D6F87E
:1001900000480047352E00087008002006488047B8
:1001A00006480047FEE7FEE7FEE7FEE7FEE7FEE75C
:1001B000FEE7FEE7FEE7FEE7752500088901000877
:1001C0002DE9F05F0546002092469B46884606468C
:1001D000814640241BE0284641464746224600F01F
:1001E0009CF853465A46C01A914110D311461846FE
:1001F000224600F083F82D1A67EB01084F4622468D
:100200000120002100F07AF817EB00094E41201E72
:10021000A4F10104DFDC484631462A464346BDE8E6
:10022000F09FD2B201E000F8012B491EFBD27047CB
:100230000022F6E710B513460A4604461946FFF7B2
:10024000F0FF204610BD30B505462A460B4612F891
:10025000010B13F8014B08B1A042F8D01CB10028E3
:1002600002D06D1CF1E7284630BD421C10F8011B7E
:100270000029FBD1801A7047034611F8012B00F8C2
:10028000012B002AF9D118467047000070B50F4DB8
:1002900000B92868002412E00A4602E09E4203D01A
:1002A000521C1378002BF9D1DAB2224305D02BB1BE
:1002B00024B1002100F8011B04E00446401C06782C
:1002C000002EE9D12860204670BD000018000020F3
:1002D00030B50B46014600202022012409E021FA16
:1002E00002F59D4205D303FA02F5491B04FA02F513
:1002F0002844151EA2F10102F1DC30BD202A04DBE6
:10030000203A00FA02F1002070479140C2F1200328
:1003100020FA03F3194390407047202A04DB203A67
:1003200021FA02F00021704721FA02F3D040C2F115
:10033000200291400843194670470000064C074DC3
:1003400006E0E06840F0010394E8070098471034A5
:10035000AC42F6D3FFF71CFFC4310008E4310008BB
:100360002DE9F0470024B4B082464FF4FA682546E0
:100370004FF6FF776E4EDFF8BC910FE03B4605224B
:100380006DA1504601F020FD404600F0DEF9641CEE
:100390000A2C03DD6AA002F0E1FE05E06CA16D48C5
:1003A000FFF751FF0028E9D0B8464C460027C82186
:1003B00002A8FFF73DFFFF216648FFF739FF3570C0
:1003C00065A16EA0CDE9000122786FA371A102A8FA
:1003D00002F02AFC02A8FFF748FF82B2434602A9B6
:1003E000504601F0F1FC4FF47A7959A15948FFF7D2
:1003F0002AFF08B171A006E075A15648FFF723FF58
:10040000002829D074A002F0A9FE0027C82102A864
:10041000FFF70EFFFF214F48FFF70AFF45483570F1
:1004200032211430FFF704FF424822786DA11430C6
:1004300002F0FAFB6FA00090227870A379A102A8C5
:1004400002F0F2FB02A8FFF710FF82B2434602A9B6
:10045000504601F0B9FC08E00A2F01DD77A0D2E791
:10046000484600F072F97F1CBFE732493948143121
:10047000FFF7E9FE08B176A00EE07AA13548FFF754
:10048000E2FE18B178A002F069FE8FE750A1314872
:10049000FFF7D9FE38B379A002F060FE25480027A7
:1004A00032211430FFF7C4FEC82102A8FFF7C0FEB6
:1004B000FF212848FFF7BCFE1E483570227871A145
:1004C000143002F0B1FB227873A102A8236902F074
:1004D000ABFB02A8FFF7C9FE82B2434602A9504611
:1004E00001F072FC08E0642F01DD71A0D4E7C820A0
:1004F00000F02BF97F1CB8E70E4916481431FFF7BE
:10050000A2FE08B16FA009E031A11248FFF79BFEDF
:1005100008B170A002E0642F05DD72A002F01EFE9B
:1005200034B0BDE8F087C82000F00FF97F1CE3E786
:10053000050000202804002041540D0A000000009E
:1005400041542074696D656F7574210D0A0D0A00A0
:100550004F4B00002703002063644469724C4E70C7
:10056000366D69625631374676425556524E4E596F
:100570006438664A7A657457000000006263323658
:10058000746573740000000061313063684B7570EE
:100590005773680041542B514D544346473D224107
:1005A0004C4941555448222C25642C222573222C79
:1005B000222573222C222573220D0A004D515454FA
:1005C000C5E4D6C3B3C9B9A6210D0A0D0A000000BF
:1005D0004552524F520000004552524F52210D0ACF
:1005E000000000002B514D544F50454E3A202564D9
:1005F0002C3000003138383300000000696F742D52
:1006000061732D6D7174742E636E2D7368616E67E6
:100610006861692E616C6979756E63732E636F6DA5
:100620000000000041542B514D544F50454E3D2584
:10063000642C222573222C25730D0A004D5154542D
:10064000C5E4D6C3B3ACCAB1A3A10D0A0D0A00001C
:10065000B4F2BFAACDF8C2E7B3C9B9A6210D0A0DFD
:100660000A0000002D310000B4F2BFAACDF8C2E7A5
:10067000CAA7B0DC210D0A0D0A0000006661696C92
:10068000210D0A002B514D54434F4E4E3A20256404
:100690002C302C300000000041542B514D54434F5E
:1006A0004E4E3D25642C222573220D0A00000000C9
:1006B000B4F2BFAACDF8C2E7B3ACCAB1A3A10D0A88
:1006C0000D0A0000C1ACBDD3B3C9B9A6210D0A0DF6
:1006D0000A000000636F6E6E656374206661696C6A
:1006E000210D0A00C1ACBDD3B7FECEF1C6F7B3AC45
:1006F000CAB1A3A10D0A0D0A00000000FEE7704771
:1007000010B590F825100024022903D00421C163FC
:10071000012418E001680A6822F00E020A600168EC
:100720000A6822F001020A6090F84420036C01215B
:1007300001FA02F25A6080F82510002180F8241096
:10074000816B01B18847204610BD70B5044600F0AA
:10075000F7F80546601C00D0641C00F0F1F8401B5F
:10076000A042FAD370BD00002DE9F84FDFF898B130
:1007700000234FF0010C4FF0030A4FF00F090BF16B
:10078000040EB9E00CFA03F4224070D04D68022D3B
:1007900001D0122D0ED1DD0800EB8508D8F82050CD
:1007A0005E07F70E09FA07F6B5430E69BE402E4301
:1007B000C8F8206007685E0091F804800AFA06F520
:1007C00008F00308AF4308FA06F848EA0708C0F83B
:1007D00000804F68012F05D0022F03D0112F01D0C8
:1007E000122F13D1D0F80880CF6828EA0508B74047
:1007F00047EA08078760D0F804800F7928EA0408E0
:10080000C7F300179F4047EA08074760D1F8048004
:100810006FEA0807BF0706D1C76AA743C8F3C00439
:100820009C403C43C462C468AC438D68B5402543DA
:10083000C5604C68E4005ED5344C256E45F001057A
:100840002566246E23F0030504F001040094304C67
:100850002E19B4689D072F0F09FA07F5AC43B0F1C4
:10086000904F05D02B4DA84204D101251CE042E059
:10087000002519E0284DA84201D1022514E0274D9A
:10088000A84201D103250FE0254DA84201D104253E
:100890000AE0244DA84201D1052505E0224DA842D9
:1008A00001D1062500E00725BD402543B560DBF8F2
:1008B00000405D464E689443F60300D514432C6017
:1008C000DEF8004075464E689443B60300D51443E5
:1008D0002C600D4D08352C684E689443F60200D507
:1008E00014432C60084D0C352C684E689443B602B6
:1008F00000D514432C605B1C0A6832FA03F57FF4C0
:1009000041AFBDE8F88F0000000401400010024034
:10091000000001400004004800080048000C0048A6
:1009200000100048001400480018004842694A407E
:10093000426170470AB1816170478162704700006F
:100940000148006870470000140000200248016858
:10095000491C0160704700001400002010B50320FE
:1009600000F090F8002000F005F800F017F80020E3
:1009700010BD000010B5044607484FF47A710068B6
:10098000B0FBF1F000F023FE00222146501E00F0E3
:1009900059F8002010BD000000000020224808B5D2
:1009A000016E41F001010166016E01F0010100914B
:1009B000816D41F080518165806D00F08050009024
:1009C000032000F05FF8002211466FF00B0000F0EA
:1009D00039F8002211466FF00A0000F033F80022C7
:1009E00011466FF0090000F02DF800221146501F4B
:1009F00000F028F800221146101F00F023F8002212
:100A00001146901E00F01EF800221146501E00F004
:100A100019F800221146052000F014F8BDE808403E
:100A2000052000F003B800000010024000F01F0293
:100A3000012191404009800000F1E020C0F8001140
:100A400070470000F0B40E4B1B680C46C3F3022342
:100A5000C3F10705042D00D90425191D072901D26A
:100A6000002300E0DB1E012606FA05F1491E2140A5
:100A700099409E40761E16403143F0BC01F0BCBA4E
:100A80000CED00E0064900F0070208684FF6FF038E
:100A9000184040EA0220034A1043086070470000F3
:100AA0000CED00E00000FA051549B0F5007F08687C
:100AB000C0F3412009D0022805D0086820F4C060A6
:100AC00040F480600860002070470128FBD008686F
:100AD00020F4C06040F4007008600A480A4A0068C8
:100AE000B0FBF2F03222504300E0401E10B14A69E0
:100AF0005205FAD448694005E5D503207047000047
:100B0000007000400000002040420F0002480068D2
:100B100000F4C06070470000007000402DE9F84FFD
:100B2000044600270088E54D3E46010504F1200BF0
:100B30001DD5606E78B1B0F5800F11D0B0F5000F03
:100B400004D0B0F5400F22D001270FE0E86840F450
:100B50008030E8601BE00021201D01F0DFFA03E097
:100B60000021584601F070FB070010D03E46208857
:100B7000C00426D5A06EC0B1B0F1807F1AD0B0F10C
:100B8000007F0DD0B0F1407F19D0012718E0D5F8D3
:100B90008800616E20F440000843C5F88800E6E74D
:100BA000E86840F48030E86009E00021201D01F091
:100BB000B5FA03E00021584601F046FB0746F7B1BD
:100BC0003E46206880033AD5A86D4FF00008C0006B
:100BD00009D4A86D40F08050A865A86D4FF00108B9
:100BE00000F080500090DFF8D8A2DAF8001041F44D
:100BF0008071CAF80010FFF7A3FE814610E0D5F817
:100C00008800A16E20F040700843C5F88800D8E73E
:100C1000FFF796FEA0EB0900022801D9032705E0A3
:100C2000DAF80000C005F3D5002F7CD04FEA0706A4
:100C3000B8F1000F03D0A86D20F08050A86520788F
:100C4000C00707D0D5F88800A16B20F00300084347
:100C5000C5F888002078800707D5D5F88800E16BB3
:100C600020F00C000843C5F888002078400707D51D
:100C7000D5F88800216C20F030000843C5F88800C2
:100C80002078000707D5D5F88800616C20F0C000F7
:100C90000843C5F888002078C00607D5D5F8880035
:100CA000A16C20F440700843C5F8880020788006C5
:100CB00007D5D5F88800E16C20F440600843C5F8FA
:100CC00088002088800507D5D5F88800E16D20F4DC
:100CD00040200843C5F888002088400507D5D5F88E
:100CE0008800216E20F440100843C5F88800207861
:100CF000400607D5D5F88800216D20F44050084300
:100D0000C5F888002078000607D5D5F88800616D01
:100D100020F440400843C5F888002088C00509D564
:100D2000D5F8880000E01CE0A16D20F440300843B5
:100D3000C5F8880020884FF0006780044FF0806875
:100D40004FD5D5F88800E16E20F040600843C5F823
:100D50008800E06EB8423CD1E86840F48010E8605A
:100D60003FE0D5F8900010F4407015D0D4F884100E
:100D7000814211D0D5F89000D5F8901020F4407041
:100D800041F48031C5F89010D5F8901021F48031ED
:100D9000C5F89010C5F89000C00710D0FFF7D0FD3F
:100DA000074641F2883906E0FFF7CAFDC11B4945F5
:100DB00001D903263CE7D5F890008007F4D5D5F893
:100DC0009000D4F8841020F440700843C5F89000D7
:100DD0002EE7404505D10121201D01F09FF900B10A
:100DE00006462068000317D5D5F88800216F20F04B
:100DF00040600843C5F88800206FB84204D1E86815
:100E000040F48010E86007E0404505D10121201D35
:100E100001F084F900B106462068400317D5D5F8E3
:100E20008800616F20F040600843C5F88800606F5B
:100E3000B84204D1E86840F48010E86007E040451B
:100E400005D10121201D01F069F900B10646208875
:100E500040041AD5D5F88800A16F20F0405008430F
:100E6000C5F88800A06FB0F1805F03D0B0F1005FDB
:100E700005D00AE00221201D01F050F903E0022113
:100E8000584601F0E1F900B106462088000407D574
:100E9000D5F88800E16F20F080400843C5F888004D
:100EA0002068C00307D555F8880FD4F8801020F0CB
:100EB0000040084328603046BDE8F88F001002402B
:100EC000007000402DE9F047DFF8608105460E46CE
:100ED000D8F8000000F00700B0420CD2D8F800109B
:100EE00021F007013143C8F80010D8F8000000F0E5
:100EF0000700B04275D128784D4CC00757D06868BC
:100F0000032818D0022819D02168D0B1490500293A
:100F100067DAA16821F003010143A160FFF710FD2A
:100F20006968074641F28830032913D002291FD08F
:100F3000814651B336E021688901E8E721688903D9
:100F4000E5E78907E3E700BFFFF7FAFCC11B494566
:100F500001D924E08146A068C0F381000328F3D1C1
:100F600025E000BFFFF7ECFCC11B494501D916E0A5
:100F70008146A068C0F381000228F3D117E000BFCA
:100F8000FFF7DEFCC11B494509D8A06810F00C0F23
:100F9000F6D10CE0FFF7D4FCC11B494502D9032070
:100FA000BDE8F087A068C0F381000128F2D128785D
:100FB000800705D5A068A96820F0F0000843A0606C
:100FC000D8F80010404601F00701B1420BD9016882
:100FD00021F0070131430160006800F00700B042D2
:100FE00001D00120DCE72878400705D5A068E96832
:100FF00020F4E0600843A0602878000706D5A068C8
:10100000296920F4605040EAC100A06000F03CF87B
:10101000A168084AC1F30311515CC8400649086041
:101020000020FFF7A7FC0020BAE7000000200240E4
:10103000001002407C3100080000002001480068D8
:1010400070470000000000200448054900688968D6
:10105000044AC1F30221515CC840704700000020DF
:1010600000100240BC310008044805490068896846
:10107000044AC1F3C221515CC840704700000020FF
:1010800000100240BC31000830B52D49002318463D
:101090008A682C4C12F00C0F4FEA640514D08A6851
:1010A000C2F38102032A04D1CA6802F00302012AB2
:1010B0000AD08A68C2F38102012A19D08A68C2F371
:1010C0008102022A16D016E00A68120704D4D1F869
:1010D0009420C2F3032202E00A68C2F303121A4BFF
:1010E00053F822308A6812F00C0F04D1184602E03F
:1010F000204600E028468A68C2F38102032A1DD1F7
:10110000C868CA6800F00300C2F30212521C022829
:1011100004D0032805D0B3FBF2F004E0B4FBF2F0F6
:1011200001E0B5FBF2F0CA68C968C2F30622504379
:10113000C1F34161491C4900B0FBF1F030BD000032
:10114000001002400024F4008C3100082DE9F8431F
:1011500004460078FE4DC0065DD5A86810F00C0F5F
:101160000AD0A0690028286871D040F001002860EA
:10117000FFF7E6FB064654E02868800702D5A06921
:1011800000287DD0216A2868000703D5286800F070
:10119000F00004E0D5F89400F02202EA1010814239
:1011A00016D9084601F0D6F8002869D1286840F021
:1011B000080028602868216A20F0F00008432860B1
:1011C0006868E16920F47F4040EA0120686015E02A
:1011D000286840F0080028602868216A20F0F000A4
:1011E000084328606868E16920F47F4040EA0120F4
:1011F0006860206A01F0AEF80028D6D1FFF744FFFE
:10120000A968D44AC1F30311515CC840D2490860AF
:101210000020FFF7AFFB29E0FFF792FB801B0228BD
:101220007ED828688007F7D5286840F00800286035
:101230002868216A20F0F000084328606868E169A6
:1012400020F47F4040EA012068600FE0FFE720F0D3
:1012500001002860FFF774FB064604E0FFF770FB0F
:10126000801B0228DCD828688007F7D42078C007C4
:101270004AD0A868C0F3810002281FD0A86800E007
:1012800098E0C0F38100032803D1E868C0438007D9
:1012900014D06068B0F5803F17D0B0F5A02F286853
:1012A00017D020F480302860286820F4802028603F
:1012B0006068E0B1FFF744FB064614E0286880034D
:1012C00022D56068002875D01EE0286840F4803080
:1012D000EDE740F480202860F7E700BFFFF730FB20
:1012E000801B64289CD828688003F7D50CE0FFF7A2
:1012F00027FB064605E000BFFFF722FB801B6428A2
:101300008ED828688003F7D42078800742D5A86853
:10131000C0F38100012816D0A868C0F3810000E066
:10132000A9E0032804D1E86800F0030002280AD0ED
:10133000E068002828681DD040F480702860FFF71E
:10134000FFFA06460BE0286840050BD5E068002848
:10135000B9D007E0FFF7F4FA801B0228C2D828684A
:101360004005F7D56868217C20F0F85040EA01601C
:1013700068600FE020F480702860FFF7E1FA06460D
:1013800005E000BFFFF7DCFA801B022873D828684D
:101390004005F7D42078000729D560690028D5F8E2
:1013A000940013D040F00100C5F89400FFF7C8FA8C
:1013B000064606E0FBE000BFFFF7C2FA801B0228EA
:1013C00059D8D5F894008007F6D510E020F0010038
:1013D000C5F89400FFF7B4FA064604E0FFF7B0FA48
:1013E000801B022847D8D5F894008007F6D42078CF
:1013F000400763D5A86D0026C00008D4A86D40F052
:101400008050A865A86D012600F0805000905348D8
:101410000168C90511D40168804641F480710160FA
:10142000FFF78EFA074604E0FFF78AFAC01B02288E
:1014300021D8D8F80000C005F6D5A068012815D03D
:101440000528D5F8900017D020F00100C5F89000CD
:10145000D5F8900020F00400C5F89000A06841F293
:101460008838C8B1FFF76CFA074610E0D5F890004D
:1014700040F00100F0E777E040F00400C5F890008C
:10148000F4E700BFFFF75CFAC11B41456CD8D5F803
:1014900090008007F6D50CE0FFF752FA074604E00B
:1014A000FFF74EFAC11B414579D8D5F89000800767
:1014B000F6D41EB1A86D20F08050A865A06AE0B3F4
:1014C000A968C1F38101032972D00228286820F09D
:1014D0008070286011D02868000106D42868800038
:1014E00003D4E86820F00300E860E8681C4908407D
:1014F000E860FFF725FA044654E0FFF721FA0646B4
:1015000005E000BFFFF71CFA801B022847D82868B7
:101510008001F7D4206BE16A000110380843616B49
:10152000A26B0902120941EA42410843A18F0D4A08
:10153000490802EB4151084300E036E094F84010BE
:101540004908120102EB41610843E86028680CE099
:10155000001002407C3100080000002000700040B4
:10156000FFFFEEFE0000E0FF19E040F08070286011
:10157000E86840F08070E860FFF7E2F9044604E0B4
:10158000FFF7DEF9001B022809D828688001F7D58B
:101590000BE000BFFFF7D4F9001B022802D903209B
:1015A000BDE8F88328688001F4D40020F8E7FFE75D
:1015B0000120F5E74FF0E0210428086903D020F06E
:1015C00004000861704740F00400FAE7704710B566
:1015D000401EB0F1807F01D3012010BD4FF0E02408
:1015E00060610F21601700F007FD0020A061072057
:1015F0002061002010BD10B5FFF7E8FF10BD704757
:101600007047000030B590F83C20012A1FD001221D
:1016100080F83C200268536894680E4DAA4202D0BC
:101620000D4DAA4203D123F470054B682B4323F0E0
:1016300070050B6889682B4324F0800421435360B4
:1016400002689160002180F83C10084630BD0220FD
:1016500030BD0000002C01400034014010B50400F2
:1016600003D094F83D0010B107E0012010BD002028
:1016700084F83C00204600F00DF8022084F83D007C
:10168000211D206800F09EFF012084F83D0000200D
:1016900010BD000008B50068B0F1804F12D10A48B3
:1016A000816D41F001018165806D002200F0010033
:1016B000009001211C20FFF7C5F9BDE808401C205F
:1016C000FFF7B4B908BD0000001002400168CA6805
:1016D00042F00102CA600068016841F00101016046
:1016E0000020704770B5044690F83C00012817D0E0
:1016F000012584F83C50022084F83D00226890685F
:10170000364E304020F47F4090600868502839D031
:101710000DDC20285BD005DC98B3102843D153E0C2
:10172000022070BD302855D040283CD141E06028CF
:1017300030D070280CD0B0F5805F03D0B0F5005FDA
:1017400031D112E020688168244A7032114016E0DD
:10175000CB68D1E90121206800F094FF21688868F6
:10176000304040F0770088601DE0CB68D1E901216E
:10177000206800F087FF2068816841F48041816023
:1017800011E01EE0CA684968206800F08DFF502112
:10179000206806E0CA684968206800F096FF60216A
:1017A000206800F079FF84F83D50002084F83C0068
:1017B00070BDCA684968206800F076FF4021206843
:1017C000EFE700212068ECE710212068E9E72021FD
:1017D0002068E6E730212068E3E7000088FFFEFF8D
:1017E000704770B50446006801694FF00005C943B1
:1017F000890715D4C168C943890711D4E91E01615D
:1018000001202077206880698007204602D0FFF7FA
:10181000E7FF04E000F098F8204600F096F82577FE
:1018200020680169C943490717D4C168C9434907FA
:1018300013D46FF0040101610220207720688069D1
:1018400010F4407F204602D0FFF7CAFF04E000F00A
:101850007BF8204600F079F8257720680169C943B4
:10186000090716D4C168C943090712D46FF00801EB
:101870000161042020772068C0698007204602D0DB
:10188000FFF7AEFF04E000F05FF8204600F05DF8DF
:10189000257720680169C943C90617D4C168C943BF
:1018A000C90613D46FF01001016108202077206869
:1018B000C06910F4407F204602D0FFF791FF04E09A
:1018C00000F042F8204600F040F8257720680169D2
:1018D000C943C90708D1C168C943C90704D1891ED2
:1018E0000161204600F032F820680169C943090609
:1018F00009D4C168C943090605D46FF080010161AC
:101900002046FFF77CFE20680169C943490609D4D7
:10191000C168C943490605D46FF040010161204602
:1019200000F090F820680169C94389060BD4C168AA
:10193000C943890607D46FF0200101612046BDE844
:101940007040FFF75DBE70BD7047704770B5264CA4
:10195000C82100256068401C90FBF1F2606001FB2B
:101960001200002833D121A12348FEF76CFC002887
:101970002DD022A12048FEF789FCE0601FA10020A5
:10198000FEF784FCE0601DA10020FEF77FFCA06054
:101990001AA10020FEF77AFCA06019A001F0DEFB7E
:1019A0001DA001F0DBFBE06801F0D8FB1EA001F0F8
:1019B000D5FB1FA001F0D2FBA06801F0CFFB1AA05D
:1019C00001F0CCFBFF210C48FEF732FC657060682B
:1019D000B0F57A7F07DD6560BDE870404FF4805157
:1019E0001748FEF7A3BF70BD040000202B514D54D3
:1019F000524543563A000000270300202200000011
:101A0000C4FABDD3CAD5B5BDD2BBCCF5CFFBCFA2EE
:101A1000A3BA0D0A0D0A0000CFFBCFA2B5C4546FC4
:101A2000706963CEAAA3BA000D0A0D0A0000000077
:101A3000CFFBCFA2B5C4C4DAC8DDCEAAA3BA0000DA
:101A40000008004870477047704700002DE9F041DA
:101A500002680446D0691168936810F00F0F4FF0C8
:101A600000055BD003F0010601F49077374369D09D
:101A7000C70707D0CF0505D501271762626F42F06F
:101A800001026267820708D5DA0706D027680222BA
:101A90003A62626F42F004026267420708D5DA07D1
:101AA00006D0236804221A62626F42F00202626763
:101AB00002070AD501F02002324306D0236808222B
:101AC0001A62626F42F008026267626F002A32D0C7
:101AD000800605D5880603D5216E09B120468847C2
:101AE000606F000703D420688068400625D5204633
:101AF00000F099FE20688168490619D5816821F0B7
:101B000040018160E06E98B122498163E06EFEF78A
:101B1000F7FD00280FD0E06E816B06E0860611D538
:101B20008E060FD5216E23E02046BDE8F041084720
:101B30002046FFF789FFBDE8F0812046FFF784FFCC
:101B40006567F8E7C7024FF020060CD55B020AD59F
:101B5000F003106284F8716084F872602046BDE87A
:101B6000F041FFF770BF030605D50B0603D5616E84
:101B70000029D9D1DFE74006DDD54806DBD511685D
:101B8000204621F04001116084F87160656600F024
:101B900073F9D0E71328000810B5040003D094F8B7
:101BA000710010B107E0012010BD002084F8700022
:101BB000204600F027F8242084F87100206801688E
:101BC00021F001010160204600F098FE0128EBD0D1
:101BD000606A10B1204600F08AFD2068416821F457
:101BE000904141602068816821F02A01816020686D
:101BF000016841F0010101602046BDE8104000F09D
:101C0000DABD0000F0B52A4F06682A4902220123F6
:101C10000324072587B04FF09040BE4214D10E6ECA
:101C200046F480460E66096E01F48041059161021A
:101C30008DE83E006946FEF797FD0022032125202E
:101C4000FEF700FF252016E01B4FBE4217D18E6D18
:101C500046F400368E65896D01F4003105910C2142
:101C60008DE83E006946FEF77FFD00220221262016
:101C7000FEF7E8FE2620FEF7D9FE07B0F0BD0F48BC
:101C80008642FAD1886D40F480208865886D694667
:101C900000F48020059030208DE83D000848FEF7D4
:101CA00063FD002201212720FEF7CCFE2720E2E77A
:101CB000003801400010024000440040004800404D
:101CC0000008004830B590F87230202B4AD1B1B1ED
:101CD000AAB190F87030012B44D0012380F8703005
:101CE0004165A0F85820A0F85A20002202661D0382
:101CF0008168FF23A94207D1016911B10CE00120DD
:101D000030BD40F2FF110DE07F2419B1B1F1805FC9
:101D100005D009E0016901BBA0F85C3004E001696D
:101D2000D9B13F21A0F85C104267222180F87210DF
:101D300001688B6843F001038B608168A94201D17F
:101D4000016969B10849016680F87020006801687E
:101D500041F490710160002030BDA0F85C40E3E7E1
:101D60000249F0E7022030BDA328000847280008F8
:101D70001249884221D001F17802114990420AD1DA
:101D8000104B08788A781A54401C08700122891C6C
:101D9000A3F5AA700FE00B4ADC3A90420DD1094B33
:101DA0004878FF33CA781A54401C4870044901220D
:101DB000C91CA3F2DB10FFF785BF70475C00002051
:101DC00004000020280200202DE9F843044690F882
:101DD00071001F4616460D4620284BD1C5B1BEB135
:101DE00094F87000012845D0012084F870004FF06D
:101DF0000008C4F87480212084F87100FEF7A0FD6B
:101E0000A4F850608146A4F852604FF4805615E063
:101E10000120BDE8F8838021204600F0BFFED8B93C
:101E2000A068B04201D12069C0B115F8010B21684A
:101E30000885B4F85200401EA4F85200B4F85200CD
:101E40004B464FF0000200970028E4D14FF04001CC
:101E5000204600F0A3FE30B10320DAE735F8020B8C
:101E6000C0F30800E3E7202084F8710084F8708054
:101E70000020CEE70220CCE77047FEE730B51C48D3
:101E800087B0C16C41F08001C164C16C01F0800178
:101E90000591C16C41F00101C164C16C01F0010107
:101EA0000591C16C41F00401C164C06C114D00F09A
:101EB0000400059001224FF498512846FEF73AFDA0
:101EC00001244FF48850CDE9000402946946284665
:101ED0000394FEF749FC6002CDE900040220CDE93D
:101EE000020469462846FEF73FFC07B030BD0000FB
:101EF000001002400008004810B5134888B04FF0A9
:101F00008041016028210024C0E901144FF47A7156
:101F1000C0E903148461FFF7A1FB00B1FEE74FF4B1
:101F20008050039003A90848FFF7DCFB00B1FEE7EF
:101F30000094694604480294FFF764FB002800D02F
:101F4000FEE708B010BD00001C0000200C4810B5D2
:101F50000A4901604FF4E1314160002181600C22A7
:101F6000C160C0E904128161C16101624162FFF791
:101F700013FE002800D0FEE710BD0000003801402D
:101F80005C0000200C4810B50A4901604FF4E131B3
:101F90004160002181600C22C160C0E904128161AE
:101FA000C16101624162FFF7F7FD002800D0FEE742
:101FB00010BD000000440040D40000200C4810B5C3
:101FC0000A4901604FF4E1314160002181600C2237
:101FD000C160C0E904128161C16101624162FFF721
:101FE000DBFD002800D0FEE710BD000000480040E7
:101FF0004C010020FEE770470907090E002806DAA9
:1020000000F00F0000F1E02080F8141D704700F18F
:10201000E02080F800147047F0B50E460746B7B0D0
:102020001546002432212148FEF702F9C82104A8F0
:10203000FEF7FEF8FF211E48FEF7FAF81D490020C2
:1020400008701A481438417A027ACDE90021CDE9A6
:1020500002650278436818A104A800F0E5FD04A811
:10206000FEF703F982B24FF6FF7304A93846FFF773
:10207000ABFE4FF4FA7519A10D48FEF7E4F808B16C
:1020800017A009E01AA10A48FEF7DDF808B11AA066
:1020900002E0AC4204DD1BA001F060F837B0F0BDF7
:1020A000C820FEF752FB641CE5E700003C0400205A
:1020B000270300200500002041542B514D5450555A
:1020C000423D25642C25732C25642C25642C222567
:1020D00073222C222573220D0A0000004F4B0000B2
:1020E0007075626C697368206F6B210D0A000000C7
:1020F0004552524F520000004552524F52210D0A94
:10210000000000007075626C6973682074696D6509
:102110006F7574210D0A0000704700002DE9F04131
:10212000444C05468846E0680026810728680DD0A3
:10213000E16801F00301814216D1A8B1E068696845
:10214000C0F30210401C88420ED120E0012804D0C8
:10215000022805D0032807D108E02168890701E09B
:1021600021684905002907DB01265FE02168890312
:1021700002D421684903F5E7E1686A686FF00F034C
:1021800021F0730103EB021211430143E160206867
:1021900020F080602060FEF7D3FB074605E000BF1B
:1021A000FEF7CEFBC01B022837D820680001F7D409
:1021B000B8F1000F18D0B8F1010F1ED0287D4FF0F4
:1021C0007E41400801EB4060A96840EA0120216996
:1021D000194A114008432061206840F08060206067
:1021E000FEF7AEFB07461AE0A868E9680002090995
:1021F00040EA41402169114AEBE7288A104940082A
:1022000001EB4050A96840EA012021690D4AE0E74E
:10221000FEF796FBC01B022801D9032606E02068C2
:102220000001F5D52069A969084320613046BDE861
:10223000F081000000100240FF80FFF9FF80FDFFE9
:102240000000E0FFFF809FFF2DE9F0413D4C064676
:102250008846E0680025810730680DD0E16801F00C
:102260000301814216D1A8B1E0687168C0F3021081
:10227000401C88420ED120E0012804D0022805D05D
:10228000032807D108E02168890701E02168490592
:10229000002907DB012551E02168890302D4216868
:1022A0004903F5E7E16872686FF00F0321F07301ED
:1022B00003EB021211430143E160206820F08050DB
:1022C0002060FEF73DFB074605E000BFFEF738FB48
:1022D000C01B022829D820688000F7D4B8F1000F6D
:1022E00015D0307C4FF07E41400801EB4060B16872
:1022F00040EA01206169144A114008436061206886
:1023000040F080502060FEF71BFB07460FE0B068EE
:10231000F1680002090940EA414061690B4AEBE7B4
:10232000FEF70EFBC01B022801D9032506E020683A
:102330008000F5D560697169084360612846BDE891
:10234000F081000000100240FF80FFF9FF80FDFFD8
:1023500070470000F8B51C4D06460024A86DC0006B
:1023600002D5FEF7D3FB0DE0A86D40F08050A865C4
:10237000A86D00F080500090FEF7C8FBA96D21F019
:102380008051A965B0F5007F04D0802E07D94FF0A9
:1023900003040AE0802E08D9A02E01D804E001D160
:1023A000022402E0702E00D101240848016821F0C7
:1023B000070121430160006800F00700A04201D03E
:1023C0000120F8BD0020F8BD0010024000200240AE
:1023D00070470000F0B50E460746B5B00025322123
:1023E0002248FDF725FFC82102A8FDF721FFFF21A4
:1023F0001F48FDF71DFF1F4900201C4C0870143CAE
:102400001DA122781948636800F00EFC207A1FA1F4
:10241000CDE90060227802A8636800F005FC02A8FC
:10242000FDF723FF82B24FF6FF7302A93846FFF78C
:10243000CBFC4FF4FA740D490D48FDF704FF08B1C9
:1024400019A009E01CA10A48FDF7FDFE08B11CA077
:1024500002E0A54204DD1DA000F080FE35B0F0BD15
:10246000C820FEF772F96D1CE5E700003C0400206F
:1024700027030020050000202B514D545355423AAC
:102480002025642C25732C300000000041542B5172
:102490004D545355423D25642C25732C222573221F
:1024A0002C25640D0A000000B6A9D4C4B3C9B9A68E
:1024B000210D0A0D0A0000004552524F5200000043
:1024C0004552524F52210D0A0000000074696D659B
:1024D0006F7574210D0A000010B5FEF737FABDE8DC
:1024E0001040FFF788B830B5B9B010200121229014
:1024F000002428916020CDE929400220CDE92C015B
:102500000725CDE93050142132902F9122A8FEF7F3
:102510001DFE00B1FEE70F2033900320CDE9340407
:102520003694012133A83794FEF7CCFC00B1FEE7C6
:102530000F940E94684600951094FEF7EFFA00B1E0
:10254000FEE74FF40070FEF7AFFA00B1FEE7FEF7CA
:1025500075FD4FF47A71B0FBF1F0FFF738F8042005
:10256000FFF728F800221146501EFEF76BFA39B02B
:1025700030BD00000D48016841F4700101600C4855
:10258000016841F001010160002181600268094B8E
:102590001A4002608214C260026822F48022026043
:1025A00081610249C00380390860704788ED00E00E
:1025B00000100240FFFFF6EA0148FFF712B90000E1
:1025C0001C0000202DE9F0470268264B264D274EBF
:1025D000274F284C4FF0804A984209D0504507D0E9
:1025E000A84205D0B04203D0B84201D0A04204D1E5
:1025F00022F0700C4A6842EA0C02DFF87CC0DFF877
:102600007C80DFF87C9098420FD050450DD0A842D6
:102610000BD0B04209D0B84207D0A04205D06045E7
:1026200003D0404501D0484503D122F44075CA6823
:102630002A4322F080054A692A4302608A68C262FE
:102640000A688262984207D0A04205D0604503D054
:10265000404501D0484501D109690163012141612B
:10266000BDE8F087002C0140000400400008004055
:10267000000C004000340140004001400044014093
:102680000048014010B5846842EA032224F47F44E4
:102690000A432243826010BD826822F070020A431E
:1026A00042F007018160704710B5036A046A24F0A4
:1026B00001040462846924F0F00444EA021423F063
:1026C0000A020A438461026210BD10B5036A23F056
:1026D000100303628369046A23F4704343EA0232FD
:1026E00024F0A00343EA01118261016210BD90F859
:1026F0002410C90706D001684A68836A22F40032B0
:102700001A434A6090F82410890706D501684A6880
:10271000C36A22F480321A434A6090F824104907B1
:1027200006D501684A68036B22F480221A434A6086
:1027300090F82410090706D501684A68436B22F413
:1027400000421A434A6090F82410C90606D5016871
:102750008A68836B22F480521A438A6090F82410AE
:10276000890606D501688A68C36B22F400521A43B1
:102770008A6090F82410490611D501684A68036CF4
:1027800022F480121A434A60016CB1F5801F06D111
:1027900001684A68436C22F4C0021A434A6090F808
:1027A0002410090606D501684A68806C22F40022CC
:1027B00002434A607047F8B5002604464667FEF7B4
:1027C000BFF80546206800686FF07E47000708D50F
:1027D0002B4600224FF400112046009700F0DEF94E
:1027E00060B92068006840070AD52B4600224FF4E4
:1027F00080012046009700F0D1F908B10320F8BD10
:10280000202084F8710084F8720084F87060002041
:10281000F8BD10B5806A0021A0F85A10A0F8521037
:10282000FFF712F910BD01680A6822F490720A607D
:1028300001688A6822F001028A60202180F8721003
:1028400000210166704710B5B0F85C2090F8723036
:102850000168222B04D0088B40F00800088310BDCB
:10286000898C436D11401980416D891C4165B0F818
:102870005A10491E0904090CA0F85A10EFD101683A
:102880000A6822F490720A6001688A6822F00102E4
:102890008A60202180F8721000210166FFF768FA33
:1028A00010BD10B5B0F85C2090F872300168222B92
:1028B00004D0088B40F00800088310BD898C1140BB
:1028C000426D531C43651170B0F85A10491E09043B
:1028D000090CA0F85A10F0D101680A6822F490722D
:1028E0000A6001688A6822F001028A60202180F86B
:1028F000721000210166FFF73BFA10BD2DE9F0418F
:102900000446016880682369E669184363691025F5
:10291000002733431843954A0B68954E33400343D1
:102920000B6020684168E36821F44051194341601D
:102930002168A069914201D0236A18438B6823F46F
:10294000306303438B608B4B21688B4899420DD1D8
:10295000D0F8880010F0030006D001285AD00228D1
:1029600056D0032859D157E0012556E0834B9942B0
:102970000BD1D0F8880010F00C0047D0042849D0C3
:10298000082845D00C2848D146E07D4B99420BD110
:10299000D0F8880010F0300038D010283AD0202825
:1029A00036D0302839D137E0764B99420BD1D0F868
:1029B000880010F0C00029D040282BD0802827D0D4
:1029C000C0282AD128E0704B99420ED1D0F8880057
:1029D00010F440701AD0B0F5807F1BD0B0F5007FA6
:1029E00016D0B0F5407F18D116E0914215D1D0F83D
:1029F000880010F4406009D0B0F5806F0AD0B0F5BF
:102A0000006F05D0B0F5406F07D105E0002504E068
:102A1000022502E0042500E008255C4B00264FF467
:102A2000004091423DD135B1022D07D0042D07D091
:102A3000082D10D107E0FEF707FB03E0184602E07F
:102A4000FEF722FBA8B3626802EB4201814202D882
:102A5000B0EB023F01D9012775E0DFF834815DB1A9
:102A6000022D0CD0042D13D0082DF4D150082905C7
:102A7000401846F1000105E0FEF7E6FA0AE05008CA
:102A80004449F5E70023FDF79BFBA0F5407156E0B4
:102A9000FEF7FAFA6268010E030250081818714135
:102AA000F0E7E1694FF6EF7881422FD1092DD2D2BC
:102AB00000E048E0DFE805F00609200523050505EC
:102AC0002600C8E7FEF7C0FA01E0FEF7CDFA4100A4
:102AD000D4F8040001EB5001B1FBF0F080B2A0F19A
:102AE00010014145B7D84FF6F0710140C0F34200E4
:102AF00001432068C16026E027496068EAE7FEF7E5
:102B0000C3FAE4E74FF480316068E3E7092DA2D20D
:102B1000DFE805F006091E052205050525009AE7F0
:102B2000FEF792FA01E0FEF79FFA0146606801EBBA
:102B3000500100BFB1FBF0F080B2A0F1100141459F
:102B400089D82168C860266638466666BDE8F08187
:102B5000606803EB5001EDE7FEF796FAE5E7616880
:102B600000EB5100B0FBF1F0E6E700000080004010
:102B7000F369FFEF003801400010024000440040BC
:102B800000480040004C0040005000400024F40089
:102B9000FFFC0F00000024F40048E8012DE9F0419B
:102BA000984617460E460446069D1DE0681C1BD03D
:102BB0002DB1FDF7C5FEA0EB0800A84214D920688E
:102BC000016821F4D07101602068816821F0010161
:102BD0008160202084F8710084F87200002084F85D
:102BE00070000320BDE8F0812068C06936EA00006B
:102BF00004D00020B842D9D00020F3E70120F9E743
:102C00000148FEF723BF00005C0000200148FEF7EA
:102C10001DBF0000D40000200148FEF717BF0000D0
:102C20004C010020FEE700000FB4084B10B504A9CA
:102C300002AA039800F01CF8044602A9002000F044
:102C4000F3F8204610BC5DF814FB0000292E0008A4
:102C500002E008C8121F08C1002AFAD17047704765
:102C6000002001E001C1121F002AFBD170470000C3
:102C70002DE9FF4F8BB09A460F460546002606E029
:102C800025280BD052460D9990476D1C761C28784C
:102C90000028F5D10FB03046BDE8F08F0024A046E3
:102CA0000122604900E0044315F8013F203B02FA8D
:102CB00003F00842F7D128782E2817D115F8010F14
:102CC00044F004042A280ED06FF02F022878A0F1D7
:102CD000300109290AD808EB880102EB410100EB19
:102CE00001086D1CF2E757F8048B6D1C28786928E1
:102CF0003ED006DC0028CDD063280BD0642804D158
:102D000036E0732810D075284BD052460D99904765
:102D1000761C85E017F8040B8DF8000000208DF874
:102D20000100E946012003E057F8049B4FF0FF3013
:102D300061074FF0000401D40AE0641C44450DDA39
:102D40008442FADB19F804100029F6D106E0641C6D
:102D50008442FCDB19F804100029F8D1264404E071
:102D600019F8010B52460D999047641EF8D257E0AE
:102D700001CF4FF00A0B002802DA40422D2102E079
:102D8000210504D52B218DF82410012103E0E10752
:102D900005D02021F7E70DF1200908910CE0002172
:102DA000F9E701CF4FF00A0BF9E75946FDF790FA22
:102DB00001F1300209F8012D0028F6D1ADEB090030
:102DC00000F1200B600701D44FF00108D84502DD67
:102DD000A8EB0B0000E000208046002406E009A8D4
:102DE0005246005D0D999047641C761C08988442F9
:102DF000F5DB04E0302052460D999047761CB8F17F
:102E00000001A8F10108F5DC05E019F8010B5246B4
:102E10000D999047761CBBF10001ABF1010BF4DC7E
:102E20006D1C34E7092801000A68531C0B60107000
:102E300070470000FDF792FDFFF755FBFFF71EF806
:102E4000FFF7BCF8FFF782F8FFF79CF8FFF754F89C
:102E50005548002401210470017254A1416044725C
:102E600053A101615648FEF731FC554801225549EE
:102E7000B830FEF727FF53490122491C5248FEF79C
:102E800021FF5148FF21DC30FDF7D2F94D4D4FF4C1
:102E90007A76AD1E4DA000F061F94DA000F05EF90C
:102EA00051A000F05BF953A000F058F955A000F0D4
:102EB00055F958A000F052F943485AA1DC30FDF70B
:102EC000C2F9C0B14048FF21DC30FDF7B1F92C70E8
:102ED00055A000F043F902E03046FDF736FC3A48D1
:102EE000DC30FDF7C2F90028F6D037493648DC312E
:102EF000FFF770FA51E0344853A1DC30FDF7A3F935
:102F0000002833D03048FF21DC30FDF791F92C70D8
:102F10004EA000F023F902E03046FDF716FC2A48E7
:102F2000DC30FDF7A2F90028F6D02749DC31A1F109
:102F30006400FDF7A1F92448FF21DC30FDF778F9A2
:102F40002C704AA000F00AF902E03046FDF7FDFBC4
:102F50001D48DC30FDF789F90028F6D01A4A1A48D6
:102F6000DC32A2F16401FFF757F816E0164846A1DB
:102F7000DC30FDF768F930B11348FDF7F1F9304660
:102F8000FDF7E3FB09E0104840A1DC30FDF75BF9F9
:102F9000002891D00C4800F07BF80B48FF21DC3072
:102FA000FDF746F92C7075E7280400203100000079
:102FB000636C69656E744578616D706C65000000C6
:102FC0001C000020060000204C0100200D0A00001B
:102FD000C7EBD1A1D4F1D0E8D2AAB5C4B7FECEF1E7
:102FE000A3BA0D0A0D0A000024312EB6A9D4C40DCF
:102FF0000A0D0A0024322ECDC6CBCDCAFDBEDD0D92
:103000000A0D0A0024332EC9E8B1B8C9CFCFDF0DAD
:103010000A0D0A0024342EC9E8B1B8CFC2CFDF0DA3
:103020000A0D0A0024310000C7EBCAE4C8EBD2AA9B
:10303000B6A9D4C4B5C4546F706963C2B7BEB6A391
:10304000BA0D0A0D0A00000024320000C7EBCAE4E2
:10305000C8EBD2AACDC6CBCDB5C4CAFDBEDDB5C4C2
:10306000746F706963A3BA0D0A0D0A00C7EBCAE456
:10307000C8EBD2AACDC6CBCDB5C4CAFDBEDDA3BABE
:103080000D0A0D0A00000000243300002434000063
:1030900030B585B00546002414216846FDF7C8F810
:1030A000FF211848FDF7C4F8174900200870174899
:1030B00017A102786846FFF7B7FD6846FDF7D5F817
:1030C00082B24FF6FF7369462846FEF77DFE15A1D2
:1030D0000C48FDF7B8F808B113A009E017A109489A
:1030E000FDF7B1F808B117A002E0322C04DD18A0FA
:1030F00000F034F805B030BDC820FDF726FB641C95
:10310000E5E7000027030020050000202804002038
:1031100041542B514D54434C4F53453D25640D0AAA
:10312000000000004F4B00006F6666206C696E6502
:103130002073756363657373210D0A004552524F06
:10314000520000004552524F52210D0A000000006B
:1031500074696D656F7574210D0A000010B5044621
:10316000FDF783F8214682B2BDE810404FF6FF73A9
:103170000148FEF729BE0000D40000200000000036
:10318000000000000102030406070809A0860100F0
:10319000400D0300801A060000350C0040420F006D
:1031A00080841E0000093D0000127A000024F40013
:1031B00000366E010048E801006CDC0200000000EF
:1031C00001020304E4310008000000201C0000009C
:1031D000502C0008003200081C0000205408000099
:1031E000602C000800093D00000000000000000005
:1031F00000000000000000000000000000000000CF
:040000050800018965
:00000001FF
